:04000000CAEF3EF015
:107D94000D6A0C6A0B6A000140EF3FF0010EC26EDF
:107DA4000D0EC16E080EC06E1200000E026E01ECC4
:107DB4003FF0026E02501200026EACA2FED70250D7
:107DC400EDEC3EF01200000E026E9B0E016E3C0EB6
:107DD40010EC3FF01200016EACAC03D0AC900DB2CD
:107DE400AC8001C0ADFF1200000E926EF80E936ECF
:107DF400800E946E000E956E000E966E1200F20EBA
:107E04000D16ABAC03D00D90ABB00D80ABB40D84AC
:107E1400ABB20D86AECF01F001501200036E000E1E
:107E2400AC6E000EAB6E03B0AC8803A202D0AC8C77
:107E3400AB8C03B4AC8E03A602D0AB8801D0AB8A62
:107E440003B8AC849E9803BAAB8603AC02D09D8A77
:107E540001D09D9A9E9A03AE02D09D8801D09D9830
:107E640001C0AFFF0250B06EAC8AAB8E949C948E6E
:107E7400ACA81200ACBE1200948C1200F6EC3EF0DA
:107E8400E5EC3EF0D0EC3EF0000E0A6E000E056EFE
:107E9400000E046E000E076E000E066E000E096ED4
:107EA400000E086E04040510D8A402D08A8001D004
:107EB4008A9006040710D8A402D08A8201D08A923C
:107EC40008040910D8A402D08A8401D08A9481A617
:107ED40004D0520EDEEC3EF00BD081AC04D0590E2F
:107EE400DEEC3EF005D081AE03D0470EDEEC3EF072
:107EF4000A0EDEEC3EF0D7EC3EF00A6E410E0A1894
:107F0400D8A40CD0000E056E000E046E000E076E91
:107F1400000E066E000E096E000E086E420E0A1860
:107F2400D8A40CD0000E056E010E046E000E076E70
:107F3400000E066E000E096E000E086E430E0A183F
:107F4400D8A40CD0000E056E000E046E000E076E51
:107F5400010E066E000E096E000E086E440E0A181D
:107F6400D8A40CD0000E056E010E046E000E076E30
:107F7400010E066E000E096E000E086E450E0A18FC
:107F8400D8A40CD0000E056E000E046E000E076E11
:107F9400000E066E000E096E010E086E460E0A18DB
:107FA400D8A40CD0000E056E010E046E000E076EF0
:107FB400000E066E000E096E010E086E470E0A18BA
:107FC400D8A40CD0000E056E000E046E000E076ED1
:107FD400010E066E000E096E010E086E480E0A1898
:107FE400D8A460D7000E056E010E046E000E076E55
:0C7FF400010E066E000E096E010E53D740
:020000040020DA
:08000000FFFFFFFFFFFFFFFF00
:020000040030CA
:0E000000040E1F1FFF8385FF0FC00FE00F408F
:00000001FF
